:100000000C9466000C9427020C9427020C9427028F
:100010000C9427020C9427020C9427020C942702BC
:100020000C9427020C9427020C9427020C942702AC
:100030000C9427020C9427020C9427020C9427029C
:100040000C9427020C9427020C9427020C9427028C
:100050000C9427020C9427020C9427020C9427027C
:100060000C9427020C9427020C9427020C9427026C
:100070000C9427020C9427020C9427020C9427025C
:100080000C9427020C9427020C9427020C9427024C
:100090000C9427020C9427020C9427020C9427023C
:1000A0000C9427020C9427020C9427020C9427022C
:1000B0000C9427020C9427020C9427020C9427021C
:1000C0000C9427020C9427020C94270211241FBEC3
:1000D000CFEFD8E0DEBFCDBF0E94E2000C941C023F
:0400E000F894FFCFC2
:1000E40054656D70657261747572653A20002A20DA
:1000F40046414E204F4E202A002A2046414E204F92
:050104004646202A0020
:10010A00CF92DF92EF92FF920F931F93CF93DF93D9
:10011A00FC018B01EA01009729F480E3FB0180834B
:10012A00118241C0992354F44A30510551F0F19596
:10013A00E195F109CC24C394D12C05C0C12CD12C52
:10014A0002C0C12CD12C20E030E018C0CF01BE0182
:10015A000E94B20179014FEFE41AF40AD801A20F02
:10016A00B31F8A30910514F0895A01C0805D8C93BF
:10017A00CF01BE010E94B201FB019701309731F70E
:10018A00CD2849F02A9739F4F801E20FF31F8DE2DE
:10019A0080832F5F3F4FF801E20FF31F1082B901EE
:1001AA00C8010E947301C801DF91CF911F910F917D
:0A01BA00FF90EF90DF90CF900895C2
:1001C400CF93DF93CDB7DEB72A970FB6F894DEBF8F
:1001D4000FBECDBF8FEF8AB987B984B911B80E9419
:1001E400DA010E94ED010E9431017C014AE050E0F5
:1001F4008E010F5F1F4FB8010E94850060E080E010
:100204000E94FE0164EE70E080E00E945301B80198
:1002140080E80E94530187EA91E60197F1F700C054
:1002240000009AE1E916F10468F08BB181608BB9A2
:1002340064E081E00E94FE0162EF70E080E00E94D1
:100244005301D1CF8BB18E7F8BB964E081E00E94E2
:0E025400FE016DEF70E080E00E945301C4CF08
:10026200ECE7F0E08081887F86608083EAE7F0E057
:1002720080818064808380917A0086FDFCCF20910A
:10028200790030E0A4EFB1E00E940D02DC01CB0165
:10029200072E7AE0B695A795979587957A95D1F727
:0402A200702D08951E
:1002A600CF92DF92EF92CF93DF936B01E82EC0E0FF
:1002B600D0E003C00E949E012196AE2DC6018C0F90
:1002C6009D1FA11DD7FDAA95FC018491A7FD8081E4
:1002D6008111F0CFDF91CF91EF90DF90CF9008950D
:1002E6006150710920E030E00EC0DC01A20FB31F9F
:1002F6004C91FC01E60FF71F50815C9340832F5F02
:0E0306003F4F61507109261737077CF30895A9
:1003140085B988B18E7F88B988B18D7F88B988B155
:10032400846088B983EC99E00197F1F700C000007C
:0803340088B18B7F88B90895A0
:10033C0085B988B1816088B988B18D7F88B988B159
:10034C00846088B983EC99E00197F1F700C0000054
:08035C0088B18B7F88B9089578
:1003640097FB072E16F4009407D077FD09D00E945E
:10037400C60107FC05D03EF4909581959F4F0895E2
:08038400709561957F4F08950B
:10038C00AA1BBB1B51E107C0AA1FBB1FA617B707AF
:10039C0010F0A61BB70B881F991F5A95A9F78095CB
:0803AC009095BC01CD010895FC
:1003B40088E30E948A018CE00E948A0186E00E9400
:1003C4008A0180E80E948A0183EC99E00197F1F7A1
:0603D40000C000000895C6
:1003DA00ECE7F0E08081806C8083AAE7B0E08C9142
:1003EA0080688C938C9187608C93808180628083F3
:0203FA00089564
:1003FC00882321F0813021F080E003C080E801C027
:0E040C0080EC603118F4860F0E948A0108957A
:10041A00A29FB001B39FC001A39F700D811D11243B
:0E042A00911DB29F700D811D1124911D08952A
:10043800EC010E942C020E942B02CE010E942D0288
:06044800CE010E94290212
:04044E000C9400000A
:040452000E94700094
:02045600089507
:02045800089505
:02045A00089503
:00000001FF
